:020000040800F2
:10000000B807002045010008AD160008C50E00081D
:10001000B1140008350C0008A72B000800000000F0
:100020000000000000000000000000009D1F00080C
:10003000390C000800000000451E00088920000857
:100040005F0100085F0100085F0100085F01000810
:100050005F0100085F0100085F0100085F01000800
:100060005F0100085F0100085F0100085F010008F0
:100070005F0100085F0100085F0100085F010008E0
:100080005F0100085F0100085F0100085F010008D0
:100090005F0100085F0100085F0100085F010008C0
:1000A0005F0100085F0100085F0100085F010008B0
:1000B0005F0100085F010008D92200085F01000805
:1000C0005F0100085F0100085F0100085F01000890
:1000D0005F010008192900085F0100085F0100089E
:1000E0005F0100085F0100085F0100085F01000870
:1000F0005F0100085F0100085F0100085F01000860
:100100005F0100085F0100085F0100085F0100084F
:10011000352800085F0100085F0100085F01000842
:100120005F0100085F0100085F0100085F0100082F
:10013000DFF80CD000F0E6FC00480047A94C0008AE
:10014000B80700200648804706480047FEE7FEE75C
:10015000FEE7FEE7FEE7FEE7FEE7FEE7FEE7FEE777
:100160008D20000831010008D2B201E000F8012B17
:10017000491EFBD270470022F6E710B513460A4627
:1001800004461946FFF7F0FF204610BDF0B480EAA0
:100190000102D40F4200B2EB410F02D202460846E0
:1001A00011464A0042D0C30DDDB2C1F3C752AD1AA9
:1001B000202D35DAC1F3160141F4000204B1524298
:1001C000C5F1200602FA06F12A411044B3EBD05FD4
:1001D00023D0C4B1012DA0EBC35009DCF0BC4FF01B
:1001E000004202EAC352DBB200F5000000F0A3BBFC
:1001F000400000F1807000EBC350A0F1807040EA35
:10020000D170490009E0490841EAC071A0EBC35030
:1002100000F50000400800EBC350F0BC00F082BBCA
:100220006142012202EB4101001BF6E7F0BC70477E
:1002300081F00041AAE780F00040A7E780EA0102D0
:1002400010B502F00043400022D04A001FD0010E3A
:1002500001EB1261C0F35600C2F3560240F40000F5
:1002600042F40002A0FB022000047F39140400D0F5
:10027000401C50EA124001D44000491EC2B20C0694
:1002800004EBD010401C4008802A02D003E000207C
:1002900010BD20F00100002900DA0020184310BD35
:1002A00030B480EA010202F0004530F0004221F053
:1002B000004013D090B1C30DD40DC2F31601C0F3AA
:1002C0001600E41A41F4000140F400027D3491422A
:1002D00001D3641C00E04900002C02DA30BC00208D
:1002E00070474FF400000023914201D3891A034361
:1002F00040084FEA4101F7D151B1914202D14FF08C
:10030000004105E002D24FF0010101E06FF0010170
:1003100003EBC450284430BC00F004BB2DE9FE4F71
:10032000804681EA0300C00F0C46009021F0004196
:1003300023F00045B8EB0200A94105D24046214612
:1003400090461C460B46024623F00040104347D01F
:10035000270DC7F30A00C3F30A510290401A019017
:1003600040286BDAC3F3130040F4801B00989246D8
:1003700020B10023D2EB030A63EB0B0B0198594623
:10038000C0F14002504600F09CFA06460D46504629
:100390005946019A00F0B4FA10EB080061410024BC
:1003A00087EA115284EAE7731A4340D0009A62B395
:1003B000019A012A4FEA075215DC001B61EB02018A
:1003C0004FF0004202EA0752CDE90042001C41F51D
:1003D000801132462B4600F0EBFA03B0BDE8F08FF7
:1003E00040462146F9E7001B61EB0201001C41F584
:1003F000801300185B412018A2F5001747EB03019A
:1004000040EAD570B6196D4111E06D084FEA360625
:1004100045EAC0754FEA0752001B61EB0201001C60
:1004200041F5801149084FEA300000195141324628
:100430002B4603B0BDE8F04F00F0ABBA00980122A4
:1004400040000023D0EB020263EBE07300982146EA
:100450004FEAE074B8EB000061EB0401E9E783F0D8
:1004600000435BE781F0004158E72DE9FE4F81EA48
:10047000030404F0004421F0004100944FF0000B0D
:1004800023F0004350EA01045ED052EA03045BD03B
:10049000C3F30A54C1F30A552C44A4F2F334019473
:1004A000A0FB0254C1F3130141F48011C3F3130301
:1004B00043F4801301FB024400FB034E840A970AB5
:1004C00044EA815447EA8357A4FB076802958D0AE2
:1004D00005FB07854FEA932C04FB0C542705029D6E
:1004E0004FEA065847EA1637B5EB08056EEB070CDE
:1004F000870E920E47EA811742EA8312A7FB020198
:10050000B6EB0B0164EB00042B0D43EA0C335E18D1
:1005100044EB1C50DA465146E7FB0201C5F31304D5
:100520004FEA0B3343EA14534FEA0432019C43EA87
:100530000603A4F10C040294009CCDE900B400F081
:1005400037FA03B0BDE8F08F00200146F9E72DE946
:10055000F04D81EA030404F0004B21F000451446FD
:100560004FF0000A23F0004150EA050220D054EA7F
:1005700001021DD0C5F30A570246C5F31303C1F3A8
:100580001300C1F30A5640F4801543F48013A7EB1F
:100590000608101BD64608F2FD3873EB050002D39F
:1005A00008F1010801E092185B41B8F1000F03DA8D
:1005B00000200146BDE8F08D00204FF48011064672
:1005C00084460EE0171B73EB050705D3121B63EB84
:1005D000050306434CEA010C49084FEA3000921823
:1005E0005B4150EA0107EDD152EA030012D082EAE2
:1005F000040083EA0501084305D0101BAB4106D275
:100600000122002306E000224FF0004302E06FF0D9
:10061000010253101AEB06004CEB085110EB0A00D4
:1006200041EB0B01BDE8F04D00F0B3B9C10F80EA1A
:10063000E0700844CA079623002100F07CB9962395
:100640000022114600F077B90EB5C10F80EAE070C4
:100650000844CA07002140F233438DE80E000A46E1
:100660000B4600F0A5F903B000BD0EB540F23341D2
:1006700002910021CDE900110A460B4600F098F9DD
:1006800003B000BD00F0004220F00040C10DC0F3F7
:10069000160040F400007F2901DA002070479629F7
:1006A00003DCC1F19601C84001E096398840002A78
:1006B000F4D04042704720F00040C10DC0F3160056
:1006C00040F400007F2901DA00207047962903DCFE
:1006D000C1F19601C840704796398840704770B59F
:1006E000C1F30A5201F000450024C1F3130140F2A6
:1006F000FF3341F480119A4201DA002070BD40F2CC
:1007000033439A42A2F2334203DC524200F0E8F84B
:1007100000E090402C43F1D0404270BDC1F30A523A
:1007200010B5C1F3130140F2FF3341F480119A4236
:1007300001DA002010BD40F233439A42A2F2334264
:1007400003DC524200F0CCF810BD904010BD00F028
:10075000004230F000400AD0C10D01F56071C0F3D5
:10076000160042EA0151C2084007114370470020B9
:100770000146704730B5041E71F1000404DB4FF0F0
:100780000044404264EB0101141E73F1000405DBD8
:100790001C464FF00043524263EB04038B4208BFF8
:1007A000824230BD30B5041E71F1000404DB4FF00D
:1007B0000044404264EB0101141E73F1000405DBA8
:1007C0001C464FF00043524263EB0403994208BFBA
:1007D000904230BD01F0004330B421F0004150EAB6
:1007E000010206D00A0DA2F56072C1F31301002ABE
:1007F00002DC30BC00207047440F44EAC104C10051
:10080000E01830BC00EBC25000F08CB8002801DBCF
:10081000C0F10040002901DBC1F100418142704775
:10082000002801DBC0F10040002901DBC1F10041DB
:100830008842704730B50B46014600202022012433
:1008400009E021FA02F59D4205D303FA02F5491B9E
:1008500004FA02F52844151EA2F10102F1DC30BDB4
:100860002DE9F05F0546002092469B4688460646E5
:10087000814640241BE0284641464746224600F078
:100880002FF853465A46C01A914110D311461846C4
:10089000224600F016F82D1A67EB01084F46224653
:1008A0000120002100F00DF817EB00094E41201E39
:1008B000A4F10104DFDC484631462A464346BDE840
:1008C000F09F202A04DB203A00FA02F10020704752
:1008D0009140C2F1200320FA03F31943904070477E
:1008E000202A04DB203A21FA02F00021704721FA85
:1008F00002F3D040C2F120029140084319467047EC
:10090000202A06DBCB17203A41FA02F043EAE073D3
:1009100006E041FA02F3D040C2F1200291400843C0
:10092000194670470029A8BF7047401C490008BFFE
:1009300020F00100704710B4B0FA80FC00FA0CF00F
:1009400050EA010404BF10BC704749B1CCF1200447
:1009500021FA04F411FA0CF118BF012121430843D4
:10096000A3EB0C01CB1D4FEA00614FEA102042BF00
:10097000002010BC704700EBC35010440029A4BFF6
:1009800010BC7047401C490008BF20F0010010BC9B
:10099000704710B5141E73F1000408DA401C41F1D1
:1009A000000192185B411A4301D120F0010010BDF3
:1009B0002DE9F04D92469B4611B1B1FA81F202E069
:1009C000B0FA80F220329046FFF77BFF04460F46D4
:1009D00040EA0A0041EA0B0153465A46084313D045
:1009E000114653EA010019D0C8F140025046FFF702
:1009F00077FF05460E46504659464246FFF761FFCF
:100A0000084305D0012004E020463946BDE8F08DBA
:100A10000020054346EAE0762C4337430A986305F5
:100A2000E40AA0EB08000022FD0A44EA47540A3019
:100A300002D500200146E9E7010510196941DDE909
:100A4000084500196941BDE8F04DA2E72DE9FE4FC8
:100A5000C3F30A5701F000450024C1F30A56C3F35B
:100A60001303C1F3130143F4801312EB020AA646E9
:100A700041F48011009543EB030CA7F1010B16E044
:100A8000B0EB0A0061EB0C01071E71F1000707DAF9
:100A90004FF00008D0EB080085F0004568EB01013D
:100AA000171A73EB0107EBD3761E001849415E4518
:100AB000F6DA50EA010209D0CDE900E5002213463A
:100AC0000296FFF775FF03B0BDE8F08F204600994E
:100AD000F9E7C1F30A52C1F3130140F2FF3341F4C5
:100AE00080119A4202DA00200146704740F23343F7
:100AF0009A42A2F2334202DC5242FFF7F1BEFFF704
:100B0000E0BE0000064C074D06E0E06840F001033F
:100B100094E8070098471034AC42F6D3FFF70CFB7B
:100B2000B8610008D861000870B521F000430343A4
:100B30000CD0C1F30A550024D5EB040564EB040383
:100B4000D617AD1AB34102DB0020014670BD201854
:100B500041EB025170BD70B58C1810F8015B15F0B7
:100B6000070301D110F8013B2A1106D110F8012B1F
:100B700003E010F8016B01F8016B5B1EF9D12B0744
:100B800005D40023521E0DD401F8013BFAE710F8FA
:100B9000013BCB1A921C03E013F8015B01F8015BE7
:100BA000521EF9D5A142D8D3002070BD70B500F017
:100BB000EBFA6C2000F088FA00F056FB0C2000F0F5
:100BC00083FA00F051FB00F0DFFA6D2000F07CFAB0
:100BD00000F04AFB012000F0EFF90446002000F08D
:100BE000EBF9054600F008FB05EB042080B270BD70
:100BF00070B500F0E7FA6C2000F098FA00F080FB86
:100C00000C2000F093FA00F07BFB00F0DBFA6D2083
:100C100000F08CFA00F074FB012000F013FA044697
:100C2000002000F00FFA054600F004FB05EB04205D
:100C300080B270BD00BFFEE77047000008B501211B
:100C40003D2001F021F901212E4800F0EFF8C020ED
:100C5000ADF8000010208DF8030003208DF802008D
:100C60006946294800F056F8C021274800F028F9C5
:100C70004FF44060ADF8000010208DF80300032011
:100C80008DF802006946204800F044F84FF44061B6
:100C90001D4800F015F94FF40040ADF80000102099
:100CA0008DF8030001208DF802006946174800F016
:100CB00031F84FF40041154800F002F90820ADF872
:100CC000000010208DF8030001208DF80200694615
:100CD0000F4800F01FF808210D4800F0EFF802203F
:100CE000ADF8000010208DF8030001208DF80200FF
:100CF0006946054800F00EF80221034800F0DEF8CE
:100D000008BD000000023000000C0140001401404A
:100D1000000801402DE9F041024600250026002090
:100D200000230024002791F803C00CF00F0591F870
:100D300003C00CF0100CBCF1000F03D091F802C0FE
:100D40004CEA050591F800C0BCF1000F31D01468E1
:100D500000202BE04FF0010C0CFA00F3B1F800C0BA
:100D60000CEA03069E4220D183004FF00F0C0CFAD0
:100D700003F7BC4305FA03FC4CEA040491F803C0F2
:100D8000BCF1280F06D14FF0010C0CFA00FCC2F8A0
:100D900014C00AE091F803C0BCF1480F05D14FF030
:100DA000010C0CFA00FCC2F810C0401C0828D1D37A
:100DB0001460B1F800C0BCF1FF0F34DD54680020AE
:100DC0002EE000F1080C4FF0010808FA0CF3B1F81E
:100DD00000C00CEA03069E4221D183004FF00F0CA5
:100DE0000CFA03F7BC4305FA03FC4CEA040491F83F
:100DF00003C0BCF1280F05D100F1080C08FA0CF86B
:100E0000C2F8148091F803C0BCF1480F07D100F17B
:100E1000080C4FF0010808FA0CF8C2F81080401CCA
:100E20000828CED35460BDE8F0810000F0B50A4632
:100E3000002300240021002500F00046B6F1004FF9
:100E400002D11D4EF16901E01B4E7168C0F30345EC
:100E500083B200F44016B6F5401F08D121F070614E
:100E6000154E766826F07066134F7E6012E000F42F
:100E70008016B6F5801F06D1032606FA05F4A143B5
:100E800041F0706106E0460D360103FA06F6B14303
:100E900041F0706122B1460D360103FA06F6314386
:100EA00000F00046B6F1004F02D1034EF16101E0BF
:100EB000014E7160F0BD00000000014041617047CB
:100EC0000161704700BFFEE710B5FFF76FFE10BD70
:100ED00010B5FFF78DFE10BD10B54FF480610C48C2
:100EE000FFF7ECFF4FF400610948FFF7E7FF14201C
:100EF00003F0DAFB4FF480610548FFF7E1FF1420AF
:100F000003F0D2FB4FF480610148FFF7D7FF10BD1B
:100F1000000C014010B540210A48FFF7CFFF8021A7
:100F20000848FFF7CBFF142003F0C4FB402105481D
:100F3000FFF7C6FF142003F0BDFB40210148FFF777
:100F4000BDFF10BD000C014010B54FF480610C488E
:100F5000FFF7B4FF4FF400610948FFF7B1FF142019
:100F600003F0A2FB4FF480610548FFF7A9FF1420AE
:100F700003F09AFB4FF480610148FFF79FFF10BD1B
:100F8000000C014010B540210A48FFF797FF80216F
:100F90000848FFF795FF142003F08CFB402105481B
:100FA000FFF78EFF142003F085FB40210148FFF777
:100FB00085FF10BD000C014070B505460024204897
:100FC000006820F470401E4908600846006840F43C
:100FD0000040086000261DE04FF480611848001FA3
:100FE000FFF76CFF142003F05FFB4FF4806114489F
:100FF000001FFFF765FF6006040E1148001D006822
:1010000000F4006008B1601CC4B20A2003F04CFB7D
:10101000701CC6B2082EDFDB0948006820F470405F
:10102000074908600846006840F44050086015B958
:10103000FFF78AFF01E0FFF74FFF204670BD000079
:10104000040C014070B5054600241E48006820F0DD
:1010500070401C4908600846006840F00040086085
:10106000002619E040211748FFF728FF142003F05D
:1010700021FB40211348FFF723FF6006040E1148AF
:101080000830006800F0800008B1601CC4B20A207B
:1010900003F010FB701CC6B2082EE3DB09480068A1
:1010A00020F07040074908600846006840F0405052
:1010B000086015B9FFF766FF01E0FFF72BFF204638
:1010C00070BD0000000C014070B504464FF4806113
:1010D0001548FFF7F3FE002523E004F0800028B157
:1010E0004FF400611048FFF7EBFE04E04FF400619D
:1010F0000D48FFF7E3FE6006040E142003F0D4FA57
:101100004FF480610848FFF7DBFE142003F0CCFAAF
:101110004FF480610448FFF7D1FE142003F0C4FAB5
:101120006D1C082DD9D370BD000C014070B504466C
:1011300040211448FFF7C2FE00251FE004F08000A4
:1011400020B180210F48FFF7BBFE03E080210D484E
:10115000FFF7B4FE6006040E142003F0ABFA402142
:101160000848FFF7ADFE142003F0A4FA402105481B
:10117000FFF7A4FE142003F09DFA6D1C082DDDD3AB
:1011800070BD0000000C014010B54FF400610C4828
:10119000FFF796FE4FF480610948FFF791FE142097
:1011A00003F082FA4FF400610548FFF787FE142030
:1011B00003F07AFA4FF480610148FFF77FFE10BD1B
:1011C000000C014010B580210A48FFF779FE40214C
:1011D0000848FFF775FE142003F06CFA80210548DB
:1011E000FFF76CFE142003F065FA40210148FFF779
:1011F00065FE10BD000C014010B54FF480610C4835
:10120000FFF75CFE4FF400610948FFF757FE14201A
:1012100003F04AFA4FF480610548FFF751FE4FF49E
:1012200000610348FFF74CFE142003F03DFA10BDA7
:10123000000C014010B540210A48FFF73FFE802115
:101240000848FFF73BFE142003F034FA402105481C
:10125000FFF736FE80210348FFF732FE142003F02B
:1012600029FA10BD000C014010B500242348006885
:1012700020F47040214908600846006840F40040AE
:101280000860C9141D48001FFFF71AFE4FF4806163
:101290001A48001FFFF714FE0A2003F005FA13E0B6
:1012A000601CC0B20446FA280EDD1448006820F421
:1012B0007040124908600846006840F440500860D9
:1012C000FFF79AFF012010BD0C48001D006800F4D4
:1012D00000600028E4D10948006820F47040074904
:1012E00008600846006840F440500860091503484B
:1012F000001FFFF7E3FD0020E5E70000040C0140BC
:1013000010B500242148006820F070401F49086093
:101310000846006840F00040086080211B48FFF745
:10132000CFFD40211948FFF7CBFD0A2003F0C2F999
:1013300013E0601CC0B20446FA280EDD13480068B2
:1013400020F07040114908600846006840F04050A5
:101350000860FFF76FFF012010BD0C4808300068DF
:1013600000F080000028E4D10848006820F07040B8
:10137000064908600846006840F040500860402177
:101380000248FFF79BFD0020E6E70000000C01404B
:101390002DE9FC5F83465846FFF7D9F907460F4A07
:1013A0000F4BFFF762F881468A460E480068FFF748
:1013B000CEF907460C4A0D4BFFF757F84A465346FD
:1013C000CDE90001FEF7AAFF0546FFF703FA044640
:1013D000044804602046BDE8FC9F00009A99999952
:1013E0009999B93F04010020CDCCCCCCCCCCEC3FBA
:1013F0002DE9FC5F83465846FFF7A9F907460F4AD7
:101400000F4BFFF732F881468A460E480068FFF717
:101410009EF907460C4A0D4BFFF727F84A465346FC
:10142000CDE90001FEF77AFF0546FFF7D3F9044640
:10143000044804602046BDE8FC9F00009A999999F1
:101440009999B93F00010020CDCCCCCCCCCCEC3F5D
:1014500010B54FF4805006490860FFF735FD054987
:1014600008600020044908600449086010BD0000BD
:101470000C0100201C010020140100202401002088
:1014800010B54FF4805006490860FFF721FD05496B
:1014900008600020044908600449086010BD00008D
:1014A0000801002018010020100100202001002068
:1014B00000BFFEE710B50EA001F078FB10480168F0
:1014C00010480068FFF7ACF903D20D4800680D49D9
:1014D000086007200C49086000200C4908600221C0
:1014E0000B48FFF7EDFC0BA001F060FB10BD000006
:1014F0004D4F54323A20496E69740D0A00000000C5
:101500008C00002090000020980000208400002023
:10151000000C01404D4F54323A20456E61626C65BB
:10152000206472697665722E0D0A000010B50EA057
:1015300001F03CFB1048016810480068FFF770F9A3
:1015400003D20D4800680D49086007200C49086067
:1015500000200C49086008210B48FFF7B1FC0BA0E4
:1015600001F024FB10BD00004D4F54313A20496E6C
:1015700069740D0A000000008C000020900000201B
:101580009400002080000020000801404D4F54319D
:101590003A20456E61626C65206472697665722ED0
:1015A0000D0A000070B502F08FF903F029F9134914
:1015B0000860052003F054F804F052FA104908605E
:1015C000052003F04DF804F01BFA0E4908600E48A0
:1015D000007802280DD1084600680C4908600948C7
:1015E0000068FFF7B4F8044622460B4608A001F055
:1015F000DDFAC82003F034F870BD00002C01002093
:1016000030000020200000206D0000203401002068
:1016100043757272656E7420416E676C653D252E50
:1016200034660D0A0000000070B502F00FFB03F0F5
:1016300061F913490860052003F012F804F022FA5A
:1016400010490860052003F00BF804F0F1F90E4989
:1016500008600E48007802280DD1084600680C4941
:10166000086009480068FFF772F8044622460B46F6
:1016700008A001F09BFAC82002F0F2FF70BD000044
:10168000280100202C0000201C0000206D000020FC
:101690003001002043757272656E7420416E676C74
:1016A000653D252E34660D0A0000000070470000DD
:1016B00070B5002100230F22C47804B3154C2468B0
:1016C00004F4E064C4F5E064210AC1F10403CA40F3
:1016D000447804FA03F184781440214309010E4C44
:1016E0000678A155047804F01F050124AC40057864
:1016F0006D11AD0005F1E025C5F8004109E0047861
:1017000004F01F050124AC40044D0678761145F81D
:10171000264070BD0CED00E000E400E080E100E058
:101720002DE9F05F81464FF0E0208469374800687A
:1017300084420ED235490968081BFEF780FF8046B7
:101740003349FEF7ADFD07463249FEF777FD054602
:1017500010E06FF07F41091B2C4A12688818FEF7D1
:101760006EFF80462A49FEF79BFD07462949FEF792
:1017700065FD05462548046000212846FFF746F828
:1017800008D02846FEF7E3FF07460022224BFFF76A
:1017900009F800D2214D224801684846FEF74EFD67
:1017A0008346204801684846FEF742FD80461E48B1
:1017B00001684046FEF742FD07462946FEF770FDE8
:1017C000824651465846FEF7E1FC06461748006837
:1017D00080F0004731463846FFF722F804D213481C
:1017E000006880F0004009E0104801683046FFF7CB
:1017F00017F802D20D48006800E030460646094856
:10180000C0F800903046BDE8F09F0000FC000020CA
:1018100000001041BD3786350000E03F6F12833A6B
:10182000D8000020EC000020E0000020A4000020F0
:101830002DE9F05F81464FF0E02084693748006869
:1018400084420ED235490968081BFEF7F8FE80462F
:101850003349FEF725FD07463249FEF7EFFC054602
:1018600010E06FF07F41091B2C4A12688818FEF7C0
:10187000E6FE80462A49FEF713FD07462949FEF792
:10188000DDFC05462548046000212846FEF7BEFF22
:1018900008D02846FEF75BFF07460022224BFEF7E2
:1018A00081FF00D2214D224801684846FEF7C6FC60
:1018B0008346204801684846FEF7BAFC80461E4829
:1018C00001684046FEF7BAFC07462946FEF7E8FCE9
:1018D000824651465846FEF759FC064617480068AE
:1018E00080F0004731463846FEF79AFF04D213488D
:1018F000006880F0004009E0104801683046FEF7BB
:101900008FFF02D20D48006800E0304606460948C5
:10191000C0F800903046BDE8F09F0000D0000020E5
:1019200000001041BD3786350000E03F6F12833A5A
:10193000AC000020C0000020B4000020A400002063
:101940001248134908604FF082401249086012485B
:1019500012490860002012490860124908601249C3
:1019600008604FF0E0208069104908601048114974
:1019700008604FF07C501049086000200F49086053
:101980004FF0E02080690E4908607047B81E053EA0
:10199000D4000020DC0000200000C842F00000203D
:1019A000E4000020E8000020F4000020F8000020FF
:1019B00000002041D8000020E0000020EC000020C2
:1019C000FC000020124813490860134813490860BE
:1019D000134814490860002013490860134908603F
:1019E000134908604FF0E0208069124908601248EE
:1019F000124908604FF07C501149086000201149DD
:101A000008604FF0E02080690F49086070470000CF
:101A10000AD7233EA800002000005041B00000205B
:101A20000000C842C4000020B8000020BC00002014
:101A3000C8000020CC00002000002041AC000020A5
:101A4000B4000020C0000020D00000202DE9F04F9D
:101A50008DB083464FF0E02084696F48006884426F
:101A60000ED26D490968081BFEF7E9FD80466B49F7
:101A7000FEF716FC07466A49FEF7E0FB054610E054
:101A80006FF07F41091B644A12688818FEF7D7FD82
:101A900080466249FEF704FC07466149FEF7CEFB2B
:101AA00005465D48046000212846FEF7AFFE08D0D9
:101AB0002846FEF74CFE074600225A4BFEF772FE00
:101AC00000D2594D594801685846FEF7B7FB0C90B3
:101AD000574801685846FEF759FB0746FEF737FEA0
:101AE000CDE90401294653480068FEF7A7FB0190A1
:101AF000FEF72DFE074600224A4BFEF7B6FCCDE965
:101B00000201DDE90423FEF7B0FCCDE908014A48F3
:101B10000068FEF71CFECDE90601DDE90823FEF7AB
:101B2000FDFBCDE90A01FEF755FE06464348006875
:101B300080F0004731463846FEF772FE04D23F4837
:101B4000006880F0004009E03C4801683046FEF73C
:101B500067FE02D23948006800E03046064631464A
:101B60000C98FEF713FB81463448006880F000476C
:101B700049463846FEF754FE04D23048006880F0EB
:101B8000004009E02D4801684846FEF749FE02D2B0
:101B90002A48006800E048468146294801684846CE
:101BA000FEF746FB07462946FEF77AFB82462548A4
:101BB00001685046FEF734FE0CD2294621480068E1
:101BC000FEF73CFB07461E4801683846FEF7DEFA82
:101BD000814614E01B48006880F0004751463846B3
:101BE000FEF71EFE0BD2294616480068FEF726FBBC
:101BF0000746134801683846FEF71DFB81460E482C
:101C000006600F48C0F800900948C0F800B0484688
:101C10000DB0BDE8F08F0000F8000020000010417A
:101C2000BD3786350000E03F6F12833AD4000020B4
:101C3000E8000020DC000020E40000208C000020F0
:101C4000F4000020F00000202DE9F04F8DB0834615
:101C50004FF0E02084696F48006884420ED26D49DD
:101C60000968081BFEF7EBFC80466B49FEF718FB82
:101C700007466A49FEF7E2FA054610E06FF07F4139
:101C8000091B644A12688818FEF7D9FC804662492D
:101C9000FEF706FB07466149FEF7D0FA05465D48A8
:101CA000046000212846FEF7B1FD08D02846FEF763
:101CB0004EFD074600225A4BFEF774FD00D2594DE7
:101CC000594801685846FEF7B9FA0C905748016820
:101CD0005846FEF75BFA0746FEF739FDCDE90401E9
:101CE000294653480068FEF7A9FA0190FEF72FFD38
:101CF000074600224A4BFEF7B8FBCDE90201DDE9B9
:101D00000423FEF7B2FBCDE908014A480068FEF75C
:101D10001EFDCDE90601DDE90823FEF7FFFACDE956
:101D20000A01FEF757FD06464348006880F0004769
:101D300031463846FEF774FD04D23F48006880F013
:101D4000004009E03C4801683046FEF769FD02D2D8
:101D50003948006800E03046064631460C98FEF7E8
:101D600015FA81463448006880F0004749463846F5
:101D7000FEF756FD04D23048006880F0004009E0CC
:101D80002D4801684846FEF74BFD02D22A480068FC
:101D900000E048468146294801684846FEF748FA6F
:101DA00007462946FEF77CFA8246254801685046D8
:101DB000FEF736FD0CD2294621480068FEF73EFAB0
:101DC00007461E4801683846FEF7E0F9814614E0F0
:101DD0001B48006880F0004751463846FEF720FD5A
:101DE0000BD2294616480068FEF728FA0746134822
:101DF00001683846FEF71FFA81460E4806600F4814
:101E0000C0F800900948C0F800B048460DB0BDE8E1
:101E1000F08F0000CC00002000001041BD37863557
:101E20000000E03F6F12833AA8000020BC000020B1
:101E3000B0000020B80000208C000020C800002066
:101E4000C40000207047000029B1064AD26902434D
:101E5000044BDA6104E0034AD2698243014BDA6140
:101E6000704700000010024029B1064A126902437F
:101E7000044B1A6104E0034A12698243014B1A6160
:101E8000704700000010024029B1064A92690243DF
:101E9000044B9A6104E0034A92698243014B9A61C0
:101EA000704700000010024029B1064AD268024380
:101EB000044BDA6004E0034AD2688243014BDA60E3
:101EC000704700000010024030B5002100220024BD
:101ED00000232D4D6D6805F00C0121B1042905D0BA
:101EE000082923D105E0294D056022E0274D056032
:101EF0001FE0254D6D6805F47012234D6D6805F4E3
:101F00008034022505EB92421CB9214D55430560F2
:101F10000BE01D4D6D6805F400351DB11C4D55439A
:101F2000056002E0194D5543056002E0174D05605C
:101F300000BF00BF144D6D6805F0F0010909154D93
:101F40006B5C0568DD4045600F4D6D6805F4E06130
:101F5000090A104D6B5C4568DD4085600A4D6D686F
:101F600005F46051C90A0B4D6B5C4568DD40C560E6
:101F7000054D6D6805F44041890B074D6B5CC568E4
:101F8000B5FBF3F5056130BD0010024000127A0088
:101F900000093D000000002010000020704710B52F
:101FA00000F002F810BD00000CB500200190009078
:101FB0003348006840F480303149086000BF304841
:101FC000006800F4003000900198401C01900098D7
:101FD00018B90198B0F5A06FF1D12948006800F454
:101FE000003010B10120009001E000200090009826
:101FF000012843D12348006840F0100021490860BF
:102000000846006820F0030008600846006840F0B9
:10201000020008601A48406819494860084640684C
:1020200048600846406840F4806048600846406860
:1020300020F47C1048600846406840F4E81048608E
:102040000846006840F08070086000BF0C480068D7
:1020500000F000700028F9D00948406820F0030023
:10206000074948600846406840F00200486000BFE9
:102070000348406800F00C000828F9D10CBD0000AE
:1020800000100240002002407047000010B51348C5
:10209000006840F001001149086008464068104996
:1020A00008400E494860084600680E4908400B4940
:1020B00008600846006820F48020086008464068F0
:1020C00020F4FE0048604FF41F008860FFF767FFB0
:1020D0004FF000600449086010BD0000001002408D
:1020E0000000FFF8FFFFF6FE08ED00E000B589B044
:1020F00001210420FFF7C8FE01210846FFF7A4FED6
:102100000720ADF8200018208DF8230003208DF85B
:10211000220008A92448FEF7FDFD4FF0804000F0A2
:1021200013F90020ADF8140040F29F50ADF81800EC
:102130002020ADF816000020ADF81A0005A94FF0D8
:10214000804000F025FB6020ADF804000120ADF8D0
:1021500006000020ADF80A00ADF80C0001A94FF010
:10216000804000F0FFF901A94FF0804000F050FAE4
:1021700001A94FF0804000F0ABFA0821C80600F03A
:102180003DFA0821C80600F095FA0821C80600F0BB
:10219000EFFA0121880700F0BBF80121880700F061
:1021A000C6F809B000BD00000008014000B589B0C4
:1021B00001210C20FFF768FE01210220FFF744FEF9
:1021C000C020ADF8200018208DF8230003208DF8E2
:1021D000220008A92848FEF79DFD0120ADF8200047
:1021E00018208DF8230003208DF8220008A9234829
:1021F000FEF790FD224800F0A7F80020ADF814008B
:1022000040F29F50ADF818002020ADF816000020D5
:10221000ADF81A0005A91A4800F0BAFA6020ADF826
:1022200004000120ADF806000020ADF80A00ADF86A
:102230000C0001A9124800F095F901A9104800F01E
:10224000E7F901A90E4800F043FA08210C4800F014
:10225000D5F908210A4800F02DFA0821084800F0B5
:1022600087FA0121064800F053F80121044800F0E4
:102270005EF809B000BD000000080140000C0140FC
:10228000000400401FB501210420FFF7DDFD1E20E2
:102290008DF8000001208DF803006846FFF708FA6A
:1022A00040F2E730ADF808004720ADF80400002008
:1022B000ADF80600ADF80A0001A9064800F068FA7A
:1022C00001221146034800F044F90121014800F0C1
:1022D0002EF81FBD0008004010B50121094800F08C
:1022E00027F9012809D108480068401C0649086000
:1022F00006480068401C054908600121014800F0BB
:1023000013F810BD00080040480100204C010020D7
:1023100021B1028842F08002028004E002884FF678
:102320007F731A4002807047CA430282704721B10E
:10233000028842F00102028004E002884FF6FE7338
:102340001A4002807047000010B504466848844275
:1023500008D10121C014FFF7A7FD0021E014FFF709
:10236000A3FDC4E0B4F1804F08D101210846FFF776
:102370007BFD00210120FFF777FDB8E05D48844236
:1023800008D101210220FFF76FFD00210220FFF795
:102390006BFDACE05848844208D101210420FFF7CE
:1023A00063FD00210420FFF75FFDA0E05348844255
:1023B00008D101210820FFF757FD00210820FFF771
:1023C00053FD94E04E48844208D101211020FFF7CC
:1023D0004BFD00211020FFF747FD88E0494884426B
:1023E00008D101212020FFF73FFD00212020FFF729
:1023F0003BFD7CE04448844208D101214014FFF7B2
:1024000053FD00216014FFF74FFD70E03F48844208
:1024100009D10121C804FFF747FD00214FF4002036
:10242000FFF742FD63E03A48844209D101210805E3
:10243000FFF73AFD00214FF48010FFF735FD56E01D
:102440003448844209D101214805FFF72DFD0021C0
:102450004FF40010FFF728FD49E02F48844208D1CF
:1024600001214020FFF700FD00214020FFF7FCFC88
:102470003DE02A48844208D101218020FFF7F4FC86
:1024800000218020FFF7F0FC31E02548844208D18C
:1024900001218015FFF7E8FC0021A015FFF7E4FCFF
:1024A00025E02048844209D101210804FFF7FCFC03
:1024B00000214FF48030FFF7F7FC18E01A488442FF
:1024C00009D101214804FFF7EFFC00214FF400304F
:1024D000FFF7EAFC0BE01548844208D1012188048B
:1024E000FFF7E2FC00214FF48020FFF7DDFC10BD78
:1024F000002C01400004004000080040000C004097
:10250000001000400014004000340140004C014025
:10251000005001400054014000180040001C0040E1
:1025200000200040004001400044014000480140BC
:1025300030B50246002000230024158A05EA010375
:10254000958905EA010413B10CB1012000E00020D7
:1025500030BD1AB183890B43838102E083898B43A9
:102560008381704770B5002400220023058C4FF64C
:10257000FE7635400584028C8388048B4FF68F7578
:102580002C40B51E2C400D882C43751E2A400D8909
:102590002A434D882A43144DA8420BD0134DA8421C
:1025A00008D0134DA84205D0124DA84202D0124DBA
:1025B000A84213D14FF6F7752A404D892A434FF6AA
:1025C000FB752A408D882A434FF6FF652B404FF656
:1025D000FF552B408D892B43CD892B43838004836A
:1025E000CD888586028470BD002C014000340140F6
:1025F0000040014000440140004801400A460021DB
:10260000018B4FF6F77319401143018370470000A7
:1026100070B5002400220023058C4FF6EF7635407C
:102620000584028C8388048B48F6FF752C404FF696
:10263000FF452C400D884FF6FF7606EA05252C4312
:102640004FF6DF752A400D8906EA05152A434D88A5
:1026500006EA05152A43154DA84202D0144DA8429A
:102660001DD14FF67F752A404D894FF6FF7606EA59
:1026700005152A434FF6BF752A408D8806EA0515D1
:102680002A434FF6FF352B404FF2FF752B408D89C3
:1026900006EA85052B43CD8906EA85052B43838011
:1026A0000483CD880587028470BD0000002C0140A2
:1026B000003401400A460021018B4FF2FF7319409C
:1026C0004FF6FF7303EA02231943018370470000AA
:1026D00070B5002400220023058C4FF6FF663540BC
:1026E0000584028C8388848B4FF68F752C404FF6BF
:1026F000FC752C400D882C434FF6FF552A400D8960
:102700004FF6FF7606EA05252A434D8806EA052599
:102710002A43154DA84202D0144DA8421DD14FF2B4
:10272000FF752A404D894FF6FF7606EA05252A43B4
:102730004FF6FF352A408D8806EA05252A434EF6D6
:10274000FF752B404DF6FF752B408D8906EA051568
:102750002B43CD8906EA05152B4383808483CD88DE
:102760008587028470BD0000002C014000340140C8
:102770000A460021818B4FF6F7731940114381837C
:1027800070478186704701877047818770470000D6
:10279000002202881D4B98420ED01D4B98420BD050
:1027A000B0F1804F08D01B4B984205D01A4B98428D
:1027B00002D01A4B984204D14FF68F731A404B88BF
:1027C0001A43174B984207D0164B984204D04FF645
:1027D000FF431A40CB881A4302808B8883850B887D
:1027E00003850A4B98420BD0094B984208D00E4BF8
:1027F000984205D00D4B984202D00D4B984201D122
:102800000B7A03860123838270470000002C01406D
:10281000003401400004004000080040000C00406B
:1028200000100040001400400040014000440140FE
:102830000048014010B540F225512E4800F0F2F852
:10284000002855D02B4800F0A9F9C4B22A480088C6
:1028500048B9552C4CD129482749098844540120AE
:102860002549088044E02448008801280DD1532CD4
:1028700007D1224820490988445402201E49088073
:1028800036E000201C49088032E01C481A490988BB
:10289000445419480088401C17490880084600889D
:1028A0000B2825D10020088014498A78C97802EBCA
:1028B000012108B2FDF7BAFE114908600F490A79F3
:1028C000497902EB012108B2FDF7B0FE0D4908601D
:1028D0000B4801680C4802F0FDFB80F000400B49FA
:1028E0000860084801680A4802F0F4FB09490860DA
:1028F00010BD0000004C00401A00002054020020CF
:10290000380100203C010020540300204001002039
:1029100084030020440100202DE9F04740F22551B6
:10292000334800F07FF800285FD0314800F036F9D6
:10293000C4B23048008848B9EE2C56D12E482D49F3
:102940000988445401202B4908804EE0294800881A
:1029500001280DD1022C07D1274826490988445463
:1029600002202449088040E00020224908803CE001
:1029700021482049098844541E480088401C1D49AC
:1029800008800846008808282FD11B498878FDF761
:1029900056FE81461949FDF74BFC80464FF08E41AB
:1029A000FDF74CFC07461649FDF77AFC054612492F
:1029B000C878FDF744FE81461049FDF739FC804692
:1029C0004FF08E41FDF73AFC07460D49FDF768FCD4
:1029D000064629460B4802F077FB31460A4802F0CA
:1029E00073FB00200349088000BFBDE8F0870000AA
:1029F0000038014018000020540100200000B442BB
:102A000000003443540300208403002021B1828954
:102A100042F40052828104E082894DF6FF731A402D
:102A20008281704770B502460024002300250020F3
:102A300040F66A16B14200D100BFC1F3421501F061
:102A40001F03012606FA03F3012D02D196893340B4
:102A500006E0022D02D1168A334001E0968A334007
:102A60000C12012606FA04F41688344013B10CB196
:102A7000012000E0002070BDF0B5034600240026D0
:102A80000025002040F66A17B94200D100BF184661
:102A9000C1F3421401F01F06012707FA06F5012CC5
:102AA00001D10C3004E0022C01D1103000E01430D0
:102AB0001AB107682F43076002E00768AF43076059
:102AC000F0BD00002DE9F04786B005460E46002413
:102AD000A24600BFA1460027B08900B100BF2F4623
:102AE0002C8A4CF6FF700440F08804432C82AC8999
:102AF0004EF6F3100440B0883189084371890843C9
:102B00000443AC81AC8A4FF6FF400440B0890443D3
:102B1000AC8201A8FFF7D8F91F48874202D1DDF83F
:102B200010A001E0DDF80CA0A88900F4004040B13D
:102B30000AEBCA0000EB0A1031684900B0FBF1F85B
:102B400007E00AEBCA0000EB0A1031688900B0FB0D
:102B5000F1F86420B8FBF0F004012009642101FBC6
:102B60001089A88900F4004040B1322000EBC90070
:102B7000B0FBF1F000F00700044308E0322000EB66
:102B800009106421B0FBF1F000F00F0004432C8128
:102B900006B0BDE8F0870000003801400146888893
:102BA000C0F30800704700BFFEE700000FB4054BFC
:102BB00010B503A9044A029800F092F910BC5DF820
:102BC00014FB0000E547000814000020490050EA0B
:102BD000C12018BF04204A0D18BF40F0010040F288
:102BE000FF72B2EB515F08BF40F00200012808BF3E
:102BF000052070472DE9F0414F1E00EBC701044648
:102C0000D1E9000115461E4637F006020DD02A46CE
:102C10003346FDF72AFC7F1E04EBC703D3E90023EC
:102C2000FDF77CFB37F00602F1D1022F25D0042FEF
:102C300013D0062F18BFBDE8F0812A463346FDF7B2
:102C400014FCD4E90A23FDF769FB2A463346FDF755
:102C50000CFCD4E90823FDF761FB2A463346FDF757
:102C600004FCD4E90623FDF759FB2A463346FDF759
:102C7000FCFBD4E90423FDF751FB2A463346FDF75C
:102C8000F4FBD4E90223FDF749FB2A463346FDF75E
:102C9000ECFBD4E90023BDE8F041FDF73FBB012286
:102CA000FDF742BFFDF73ABB00221346104611461E
:102CB000FDF74DBC024A00201107FDF735BF0000AB
:102CC00001FDFFFF02E008C8121F08C1002AFAD167
:102CD00070477047002001E001C1121F002AFBD19C
:102CE0007047000001490860704700005001002053
:102CF00070B504460D462846FDF798FC0646214669
:102D0000FDF79CFA70BD00002DE9FF5F82B0002145
:102D1000DDE90430020DDDF840B0034318D044F67D
:102D20001050A2F2FF3242431514119801281FD00F
:102D3000A5EB0B00401C5FEA000A4FF000064E4F67
:102D4000DFF83891B046504615D5CAF1000413E0BB
:102D5000119801244AA3012801D16FEA0B010298BE
:102D6000119AC0E90031C0E9024206B0BDE8F09F07
:102D7000CBF10000DFE704460021404A491842EB4E
:102D80000450CDE9001012E0E00707D032463B4680
:102D900040464946FDF769FB8046894632463B4638
:102DA00010461946FDF761FB06460F466410002CDD
:102DB000EAD1DDE90401DDE90023BAF1000F06DA0A
:102DC000FDF753FB42464B46FDF74FFB05E0FDF791
:102DD000BEFB42464B46FDF7BAFB04460E460022B8
:102DE000284BFDF7DFFC03D84FF0FF30014607E02A
:102DF0000022254B20463146FDF790FAFDF769FE8B
:102E0000102409E0002C0ADB0A220023FDF728FD2C
:102E1000039B30321A55641E50EA0102F2D1641C41
:102E2000039AC4F111031444119A012A03D0012218
:102E300008430DD10AE0084304D000204FF0110BE5
:102E4000119072E7A3EB0B056D1E0DE05B4504DDF1
:102E50004FF0000205F1010504E003DA4FF0000233
:102E6000A5F10105002AECD002981199C0E90231C0
:102E7000C0E9004579E70000000014400000F03F81
:102E8000300000000000F0430000E03F2DE9F04773
:102E900006463046FDF75BFC07460F4A0F4B01F034
:102EA00057FC0446FDF796FC814600214846FDF795
:102EB000B7FC03D84846FDF74AFC07E04846FDF753
:102EC00046FC0746044A054BFDF728FA0446FDF781
:102ED00081FCBDE8F0870000EA2E4454FB21194034
:102EE0002DE9FF4F95B09B468946064600250FE227
:102EF000252877D100242746F84A0121059400E0CF
:102F0000044316F8013F203B01FA03F01042F7D1C9
:102F100030782A2811D06FF02F033078A0F13002DA
:102F2000092A16D8059A44F0020402EB820203EB48
:102F300042021044761C0590EFE759F8042B0592E5
:102F4000002A03DA504244F40054059044F002048D
:102F5000761C30782E2816D116F8010F44F00404A0
:102F60002A280DD06FF02F023078A0F13003092B02
:102F700009D807EB870302EB4303C718761CF3E776
:102F800059F8047B761C30786C280FD006DC4C286E
:102F900017D068280DD06A2814D104E0742810D006
:102FA0007A280FD10DE044F400140AE044F48014B0
:102FB00001E044F440147278824202D104F5801496
:102FC000761C761C307866280BD013DC582877D016
:102FD00009DC002875D04528F6D04628F4D04728CB
:102FE0001AD19DE118E0632835D0642879D065288E
:102FF00012D195E1702873D008DC6728F1D06928D8
:103000006FD06E280DD06F2806D1B5E073282CD074
:10301000752875D0782874D05A46179990476D1C3A
:1030200075E1C4F30250022809D003280DD0D9F865
:10303000001004280DD00D6009F1040967E1D9F8EA
:103040000010EA17C1E90052F6E7D9F800100D8028
:10305000F2E70D70F0E719F8041B8DF8001000205E
:103060008DF80100EA46012003E059F804AB4FF067
:10307000FF3061074FF0000102D40DE008F10101BB
:103080008846B9420FDA8045F8DB1AF808100029A3
:10309000F4D108E008F1010188468142FADB1AF810
:1030A00008100029F6D105985B46A0EB08072146D9
:1030B0003846179A00F094FA284400EB080507E018
:1030C0004DE029E10DE01AF8010B5A461799904797
:1030D000B8F10108F7D25B4621463846179A13E14A
:1030E00042E00A220092C4F302524FF0000A022A80
:1030F00008D059F804CB032A4FEAEC710AD00DE04E
:1031000029E02AE009F1070121F00702F2E802C1F3
:10311000914609E00FFA8CFC4FEAEC71042A03D1C6
:103120004FFA8CFC4FEAEC71002907DA0A460021BD
:10313000DCF1000C61EB02012D2202E0220504D536
:103140002B228DF80420012203E0E20701D0202287
:10315000F7E7904659E00A2102E010220DE0102125
:103160004FF0000A00910BE010224FF0000A44F0EB
:1031700004040827009203E008224FF0000A00929E
:10318000C4F30252022A05D059F804CB0021032AC5
:1031900008D009E009F1070121F00702F2E802C1B5
:1031A000914605E01FFA8CFC042A01D10CF0FF0CBB
:1031B0004FF00008220728D5702806D0009B83F026
:1031C000100353EA0A0305D00EE040228DF80420D4
:1031D000012208E05CEA010206D030228DF80420CA
:1031E0008DF8050002229046009B83F0080353EA05
:1031F0000A030AD15CEA010201D1620705D5302237
:103200008DF804204FF001087F1E582804D034A008
:1032100003900EA802900DE036A0F9E753466046F1
:10322000009AFDF71DFB84460398825C0298401EBD
:10323000029002705CEA0100F0D1029806A9081A17
:1032400000F1200A600702D524F4803400E0012751
:10325000574502DDA7EB0A0000E0002000EB0A0161
:10326000009005984144401A0590E00306D45B465F
:103270002146179A059800F0B3F90544002706E0A7
:1032800001A85A46C05D179990476D1C7F1C4745A1
:10329000F6DBE0030CD55B462146179A059800F053
:1032A0009FF9054404E030205A46179990476D1C59
:1032B0000099481E00900029F5DC08E00298029968
:1032C0005A460078491C0291179990476D1CBAF133
:1032D0000001AAF1010AF1DC65E100000928010002
:1032E000303132333435363738396162636465667C
:1032F000000000003031323334353637383941423E
:10330000434445460000000000F058F90544761C8F
:10331000307800287FF4ECAD19B02846BDE8F08F76
:10332000620700D4062709F1070222F0070CFCE827
:103330000223E14603F000485FEA080C02D00FF2D6
:10334000702C0DE05FEA045C02D50FF2682C07E0F8
:103350005FEAC47C02D00FF2602C01E0AFF2700C87
:103360004FF0FF3823F00043CDF850C065280CD053
:1033700006DC452809D046281DD047283DD13DE030
:10338000662818D067287ED138E00021112F01DB94
:10339000112000E0781CCDE9000106A90EA8FFF776
:1033A000B3FCDDE90F010E9A03910021009207F1B1
:1033B000010A04914DE04FF000400097CDE9011063
:1033C00006A90EA8FFF7A0FCDDE90F0203920E9BF1
:1033D00011990022DDF80CA00093049211B9791C18
:1033E00000EB010AB7EB0A0004D4C0F1FF3007F18B
:1033F000010A0490AAEB0700019044E0012F00DAD3
:1034000001270021112F01DD112000E03846CDE910
:10341000000106A90EA8FFF777FCDDE90F010E9A5F
:103420000391002104910092BA4621070CD403991C
:10343000514500DA8A46BAF1010F05DD009AAAF17A
:103440000101515C302908D0B84202DA10F1040FB2
:1034500006DA0121CDE9011015E0AAF10101E9E741
:10346000002805DC049901440491AAEB000102E064
:10347000411C514500DD8A460499401A401C0190C8
:103480004FF000400290200704D40198504501DB22
:10349000CDF8048000208DF84F0002980DF14F0701
:1034A000B0F1004F25D02B200E9002984FF002086B
:1034B00000280CDA404202902D200E9007E00A21ED
:1034C0000298FDF7B7F93031029007F8011DB8F105
:1034D0000001A8F10108F2DC02980028EFD1791E62
:1034E0000E980870307800F0200040F0450007F892
:1034F000020D12A8C01B00F107081498007800B153
:10350000012000EB0A01019801EBE07105984144AC
:10351000401A401E0590E00306D45B462146179AE8
:10352000059800F05DF805441498007818B15A46E3
:10353000179990476D1CE00324D55B462146179AE6
:10354000059800F04DF805441CE00498002807DBBE
:10355000DDE90301884203DD0098405C179901E032
:10356000179930205A469047049805F10105401CF0
:1035700004900198401E019004D12E205A461799BC
:1035800090476D1CBAF10001AAF1010ADDDC05E0EB
:1035900017F8010B5A46179990476D1CB8F10001B6
:1035A000A8F10108F4DC5B462146179A0598ABE6C2
:1035B0002D0000002B000000200000002DE9F0414C
:1035C000044600251E461746880404D405E0394603
:1035D0002020B0476D1C641EF9D52846BDE8F08157
:1035E0002DE9F041044600251E469046C80301D54A
:1035F000302700E02027880404D505E041463846FE
:10360000B0476D1C641EF9D52846BDE8F081000066
:103610002DE9FF5F83465846FDF799F80446954A21
:10362000954BFDF7A7F844D25846FDF790F8934A1A
:10363000934BCDE90201FCF718FF804600221346A8
:10364000FDF7B0F812D85846FDF781F880468B4A4E
:103650008B4BFCF70AFF00228A4BCDE90001FCF7F7
:103660005DFECDE90201FDF73AF811E05846FDF79D
:103670006EF8824A824BCDE90001FCF7F6FE00228B
:10368000804BCDE90201FCF7EAFE8046FDF727F802
:103690007D4951F820A05046FCF7D6FF06467B4AEC
:1036A0007B4BFCF7E2FE0446FDF794F804B0BDE85E
:1036B000F09F5846FDF74BF80446764A764BFDF7E7
:1036C00059F844D25846FDF742F86C4A6C4BCDE9A4
:1036D0000201FCF7CAFE804600221346FDF762F89D
:1036E00012D85846FDF733F8644A654BCDE900011E
:1036F000FCF7BBFE0022634BCDE90201FCF70EFE96
:103700008046FCF7ECFF11E05846FDF720F85B4AD5
:103710005B4BCDE90001FCF7A8FE0022594BCDE937
:103720000201FCF79CFE8046FCF7D9FFC0F5C7708C
:10373000554951F820A05046FCF786FF0646534AEB
:10374000534BFCF792FE0446FDF744F8AEE75846AB
:10375000FCF7FDFF0446514A514BFDF70BF844D2EC
:103760005846FCF7F4FF454A454BCDE90201FCF70A
:103770007CFE804600221346FDF714F812D8584606
:10378000FCF7E5FF3D4A3E4BCDE90001FCF76DFE3D
:10379000804600223B4BFCF7C1FDCDE90201FCF75E
:1037A0009EFF11E05846FCF7D2FF344A344BCDE976
:1037B0000001FCF75AFE80460022324BFCF74FFE18
:1037C000CDE90201FCF78BFFA0F5C7702E4951F837
:1037D00020A05046FCF738FF06462C4A314BFCF738
:1037E00044FE0446FCF7F6FF60E75846FCF7AFFFDF
:1037F0008046224A224BFCF738FE00221346CDE9D0
:103800000201FCF7CFFF12D85846FCF7A0FF1B4A75
:103810001B4BCDE90001FCF728FE80460022194B26
:10382000FCF77CFDCDE90201FCF759FF11E0584699
:10383000FCF78DFF8046114A114BFCF716FE002263
:10384000104BCDE90001FCF70AFECDE90201FCF7BF
:1038500046FFC0F547700C4951F820A05046FCF7D0
:10386000F3FE0646094A0F4BFCF7FFFD0446FCF742
:10387000B1FF1BE7F4D64354FB21F93F9CA223B9C7
:10388000FCAB5F400000E03FF85D00082D431CEBFF
:10389000E2361A3FEA2E4454FB210940320D337FB1
:1038A0007CD91240E2361ABF70B5044625462E4632
:1038B0000448A0EB6606354629462046FCF7BEFCC8
:1038C00070BD0000865A375F2DE9F04F87B090A099
:1038D000FFF76CF9002421E02046FCF7B5FE814695
:1038E000914A924BFCF7C1FD06460022904BFCF733
:1038F0002EFE904A904BCDE90001FCF70FFDCDE97B
:103900000201FCF767FF8046424600218B480068B1
:1039100001F04AFC022000F0A3FE641CB4F5FA7F1B
:10392000DADD00F06DFF05900598FCF710FF064604
:1039300032460B4682A0FFF739F94FF4FA7421E0C2
:103940002046FCF781FE0646774A784BFCF78DFD52
:103950000022774BCDE90001FCF7F9FD754A764B63
:10396000CDE90201FCF7DAFC8146FCF733FF804623
:10397000424600217148006801F016FC022000F068
:103980006FFE641E002CDBDA00F03AFF049004980E
:10399000FCF7DDFE064632460B466EA0FFF706F941
:1039A00000221146104601F0FFFBC82000F058FE2F
:1039B000DDE90410FCF73CFC8146FCF7C8FE21F071
:1039C00000410646FCF706FF0546DDE90410FCF75A
:1039D0001DFF08D02846FCF7BAFE0646624A634B34
:1039E000FCF7C8FE0AD262A0FFF7E0F802216A489D
:1039F000FDF764FA002007B0BDE8F08FDDE90410A0
:103A0000FCF704FF07D265A0FFF7D0F84FF0FF30B6
:103A10006A49086005E06AA0FFF7C8F80120674915
:103A200008606FA0FFF7C2F872480068FCF7FEFD5F
:103A300029460390FCF702FC8346FCF788FE81468A
:103A4000394A3A4BFCF70BFD21F0004106460022B3
:103A5000694BFCF7A7FE1DD268A0FFF7A7F8284620
:103A6000FCF775FE02460B46CDE902012E482F49B0
:103A7000FCF76DFD814600225F4BFCF74FFC0646CC
:103A8000FCF72DFE5B4908600846016861A0FFF75E
:103A90008DF802E061A0FFF789F8624A002127480B
:103AA000006801F081FB4FF42F7000F0D9FD00F0A9
:103AB000A7FE814641480068FCF7B8FD82464946AA
:103AC000FCF7BCFB07464B4801683846FFF710F986
:103AD0000646FFF7DBF954490860142000F0C0FDEA
:103AE00052A0FFF763F850480068FCF730FE064626
:103AF00032460B4653A0FFF759F8002211461046F4
:103B000001F052FBC82000F0ABFD012073E700007C
:103B10004D4F54323A20416C69676E2073656E7365
:103B20006F722E0D0A000000EA2E4454FB2119404A
:103B300000407F40320D337F7CD91240900000203E
:103B40006D69645F616E676C653D252E34660D0A94
:103B500000000000656E645F616E676C653D252E38
:103B600034660D0A000000007B14AE47E17A943FF2
:103B70004D4F54323A204661696C656420746F2061
:103B80006E6F74696365206D6F76656D656E742008
:103B90006C6F6F702E0D0A00000C01404D4F5432B7
:103BA0003A2073656E736F725F64697265637469DE
:103BB0006F6E3D3D4343570D0A0000008400002016
:103BC0004D4F54323A2073656E736F725F64697241
:103BD000656374696F6E3D3D43570D0A0000000038
:103BE0004D4F54323A20505020636865636B3A2041
:103BF00000000000980000200000E03F6661696C52
:103C0000202D20657374696D617465642070703A4D
:103C10000000000025640D0A000000004F4B210D3C
:103C20000A000000E4CB96407C0000204D4F543247
:103C30003A205A65726F20656C65632E20616E674D
:103C40006C653A00252E34660D0A00002DE9F04F10
:103C500087B090A0FEF7AAFF002421E02046FCF7E1
:103C6000F3FC8146914A924BFCF7FFFB064600228B
:103C7000904BFCF76CFC904A904BCDE90001FCF7AF
:103C80004DFBCDE90201FCF7A5FD8046424600212F
:103C90008B48006801F09EFC022000F0E1FC641CEF
:103CA000B4F5FA7FDADD00F025FE05900598FCF703
:103CB0004EFD064632460B4682A0FEF777FF4FF4D4
:103CC000FA7421E02046FCF7BFFC0646774A784BA1
:103CD000FCF7CBFB0022774BCDE90001FCF737FC6A
:103CE000754A764BCDE90201FCF718FB8146FCF7DB
:103CF00071FD8046424600217148006801F06AFC6F
:103D0000022000F0ADFC641E002CDBDA00F0F2FDB6
:103D100004900498FCF71BFD064632460B466EA045
:103D2000FEF744FF00221146104601F053FCC82064
:103D300000F096FCDDE90410FCF77AFA8146FCF706
:103D400006FD21F000410646FCF744FD0546DDE98D
:103D50000410FCF75BFD08D02846FCF7F8FC06468B
:103D6000624A634BFCF706FD0AD262A0FEF71EFF13
:103D700008216A48FDF7A2F8002007B0BDE8F08FDF
:103D8000DDE90410FCF742FD07D265A0FEF70EFF47
:103D90004FF0FF306A49086005E06AA0FEF706FFB1
:103DA0000120674908606FA0FEF700FF72480068B5
:103DB000FCF73CFC29460390FCF740FA8346FCF7ED
:103DC000C6FC8146394A3A4BFCF749FB21F00041D9
:103DD00006460022694BFCF7E5FC1DD268A0FEF701
:103DE000E5FE2846FCF7B3FC02460B46CDE902018E
:103DF0002E482F49FCF7ABFB814600225F4BFCF7B6
:103E00008DFA0646FCF76BFC5B49086008460168C2
:103E100061A0FEF7CBFE02E061A0FEF7C7FE624A9A
:103E200000212748006801F0D5FB4FF42F7000F007
:103E300017FC00F05FFD814641480068FCF7F6FB87
:103E400082464946FCF7FAF907464B48016838466E
:103E5000FEF74EFF0646FFF719F854490860142094
:103E600000F0FEFB52A0FEF7A1FE50480068FCF7F0
:103E70006EFC064632460B4653A0FEF797FE002224
:103E80001146104601F0A6FBC82000F0E9FB012016
:103E900073E700004D4F54313A20416C69676E2042
:103EA00073656E736F722E0D0A000000EA2E445483
:103EB000FB21194000407F40320D337F7CD91240F6
:103EC000900000206D69645F616E676C65313D250F
:103ED0002E34660D0A000000656E645F616E676CCB
:103EE00065313D252E34660D0A0000007B14AE4777
:103EF000E17A943F4D4F54313A204661696C6564D4
:103F000020746F206E6F74696365206D6F76656DC8
:103F1000656E74206C6F6F702E0D0A0000080140F2
:103F20004D4F54313A2073656E736F725F646972DE
:103F3000656374696F6E3D3D4343570D0A00000091
:103F4000800000204D4F54313A2073656E736F72BC
:103F50005F646972656374696F6E3D3D43570D0A16
:103F6000000000004D4F54313A20505020636865E6
:103F7000636B3A2000000000940000200000E03F46
:103F80006661696C202D20657374696D6174656468
:103F90002070703A0000000025640D0A0000000047
:103FA0004F4B210D0A000000E4CB96407800002022
:103FB0004D4F543A205A65726F20656C65632E2010
:103FC000616E676C653A0000252E34660D0A0000AC
:103FD0002DE9FC5F06464FF0E020846950480068F8
:103FE000844215D24E490968081BFCF728FB4D494D
:103FF0000090FCF755F90190FCF7A9FB82464A4A6C
:104000004A4BFCF732FA0746FCF7E4FB054617E09B
:104010006FF07F41091B424A12688818FCF70FFBBA
:1040200040490090FCF73CF90190FCF790FB0746F3
:104030003D4A3E4BFCF719FA8246FCF7CBFB05469E
:104040003748046000212846FCF7E0FB08D02846EA
:10405000FCF77DFB07460022354BFCF7A3FB00D2A3
:10406000344D294634480068FCF7E8F80190FCF725
:104070006EFB07468846314801683046FCF7D8F8A1
:104080000190FCF764FB21F0004182463A4643462A
:10409000FCF788FB2FD2294801683046FCF7C8F8A6
:1040A00000210190FCF7B2FB02D24FF0FF300CE090
:1040B000224801683046FCF7BBF800210190FCF76C
:1040C000AFFB01D2012000E000208346FCF7AEFAEE
:1040D0008246194801685046FCF7B0F880462946E8
:1040E000FCF7ACF80746154801683846FCF74EF86F
:1040F0001249086001E0114806601148D0F80090AC
:10410000104801680D480068FEF7F2FD07463A4680
:104110000021484601F048F84846BDE8FC9F0000F1
:10412000A0000020000010418DEDB5A0F7C6B03E04
:104130000000E03F6F12833AA4000020200000201E
:104140008C000020980000202DE9FC5F06464FF00F
:10415000E020846950480068844215D24E490968BD
:10416000081BFCF76CFA4D490090FCF799F8019098
:10417000FCF7EDFA82464A4A4A4BFCF776F90746C5
:10418000FCF728FB054617E06FF07F41091B424A08
:1041900012688818FCF753FA40490090FCF780F841
:1041A0000190FCF7D4FA07463D4A3E4BFCF75DF917
:1041B0008246FCF70FFB054637480460002128467D
:1041C000FCF724FB08D02846FCF7C1FA074600227A
:1041D000354BFCF7E7FA00D2344D294634480068E5
:1041E000FCF72CF80190FCF7B2FA074688463148F4
:1041F00001683046FCF71CF80190FCF7A8FA21F0A2
:10420000004182463A464346FCF7CCFA2FD2294871
:1042100001683046FCF70CF800210190FCF7F6FA33
:1042200002D24FF0FF300CE0224801683046FBF725
:10423000FFFF00210190FCF7F3FA01D2012000E01A
:1042400000208346FCF7F2F982461948016850467F
:10425000FBF7F4FF80462946FBF7F0FF07461548B9
:1042600001683846FBF792FF1249086001E01148E7
:1042700006601148D0F80090104801680D480068A9
:10428000FEF736FD07463A460021484601F0A2F9FE
:104290004846BDE8FC9F00009C0000200000104143
:1042A0008DEDB5A0F7C6B03E0000E03F6F12833A37
:1042B000A40000201C0000208C000020940000209E
:1042C0002DE9F84F04460D4621F000400091734956
:1042D000814211DC7249884201DC06D12CB12046B2
:1042E0002946BDE8F84FFEF7DABC6E48002DCCBF7A
:1042F0006D496E49BDE8F88F6D49814211DD6D4908
:104300008142D8BF4FF0FF366DDD20462946FEF7CB
:104310005DFC042808BFFEF7CDFC20462946BDE819
:10432000F88F6549654F25F00045814233DD6449CA
:10433000814219DD002632464FF08043204629464F
:10434000FBF7ECFF80468A46012220462946FCF70F
:10435000EBFB00223B46FCF782F842465346FCF753
:10436000F6F804460D463EE001260022BA463B46DA
:1043700020462946FBF7D2FF80460F4600225346CF
:1043800020462946FCF76BF842463B46FCF7DFF82F
:1043900004460D4627E04B4981421BDDDFF828A18A
:1043A00002260022534620462946FCF75EF80022EA
:1043B0003B46FBF7B3FF80460F460022534620469C
:1043C0002946FCF74CF842463B46FCF7C0F8044649
:1043D0000D4608E0032622462B4600203B49FCF709
:1043E000B6F804460D4622462B4610461946FCF701
:1043F0003CF88B46824602460B46FCF736F80746E9
:104400000246334888460B4606217844FEF7F2FB05
:1044100052465B46FCF729F882462E488B463A46C0
:10442000434605217844FEF7E5FB3A464346FCF750
:104430001CF802460B46002E504659460CDAFBF794
:104440006DFF22462B46FCF710F801B022462B46A2
:10445000BDE8F04FFCF706B8FBF760FF22462B469D
:10446000FCF703F81C4A7A4402EBC603D3E90023A5
:10447000FBF7F5FF22462B46FBF7F1FF174A7A447C
:1044800002EBC603D3E90023FBF7ECFF009A002AF6
:10449000B8BF81F00041BDE8F88F00000000104473
:1044A0000000F07F182D4454FB21F93FFB21F9BF98
:1044B0000000DC3F0000203E0000F33F0000F03F22
:1044C0000000E63F008003400000F83F0000F0BF1E
:1044D000721D0000301D0000CE1C0000961C000064
:1044E0002DE9F04D9446CCF1000423F000464CEA4F
:1044F0000404524F46EAD4749A46884621F000429A
:10450000BC4206D8454240EA050442EAD474BC42A3
:1045100004D9BDE8F04D6246FEF7C4BBAAF1405590
:10452000A5F17F6555EA0C040BD0022404EAAA74B5
:10453000434DDFF810E144EAD87452EA000B04D08E
:104540000CE0BDE8F04DFFF7BBBE002C14BF012C02
:10455000BDE8F08D022C30D0032C32D056EA0C0B83
:104560000AD0BE4220D1BA4209D126F0804622F0BC
:1045700080423346114617E000291ADB25E0DFF8B8
:10458000C8B0FB44002C04BFDBE90001BDE8F08D9E
:10459000012C02BFDBE9000181F00041BDE8F08D94
:1045A000022C0AD0032C0CD0BA4212D1B8F1000F61
:1045B0000BDA23482549BDE8F08D28462449BDE89B
:1045C000F08D28467146BDE8F08D1D482149BDE8B3
:1045D000F08D921B12153C2AC4BF19481D490EDCF0
:1045E000BAF1000FBEBF12F13C0F0020014606DBFE
:1045F0006246FBF7ACFF21F00041FFF761FE002CA3
:1046000008BFBDE8F08D012C04BF81F00041BDE87A
:10461000F08D114A114B022C07D0FBF720FF2A46E0
:10462000BDE8F04D0A4BFBF71ABFFBF718FF2A460F
:10463000BDE8F04D064BFBF715BF00000000F07F12
:10464000182D4454FB2109C02A1C0000FB21F9BF8E
:10465000FB210940FB21F93F075C143326A6A13C4E
:10466000014642F228324A434FF0E0235A610022C9
:104670009A611A46126942F001021A6100BF4FF0B6
:10468000E022106900F001021AB100F48032002A21
:10469000F5D04FF0E022126922F001024FF0E02342
:1046A0001A6100229A61704700BF011EA0F101004B
:1046B000FBD1704700BF011EA0F10100FBD1704784
:1046C0002DE9F0410C480068FBF7B0FF06460B48A7
:1046D00001680B480068FBF759FD07463146FBF7B8
:1046E000ADFD0546074801682846FBF7A1FD0446D5
:1046F000FEF7CCFBBDE8F08198000020740000209C
:10470000200000207C0000202DE9F0410C480068CA
:10471000FBF78CFF06460B4801680B480068FBF767
:1047200035FD07463146FBF789FD05460748016818
:104730002846FBF77DFD0446FEF7A8FBBDE8F081A7
:1047400094000020700000201C0000207800002051
:1047500070B514461D460E46002814BF01210021E5
:10476000314321F00041C1F17F6101F1E041C90F06
:1047700016D1002C14BF01210021294321F0004152
:10478000C1F17F6101F1E041C90F09D11449B1EBD9
:10479000460F08BF00281CD0690008BF002C18D0A5
:1047A0003146FCF753F9024640F2FF7030EA1150EF
:1047B0000DD0F017B0EBE17F09D0084665F31E007D
:1047C00084460B4620466146FBF74CFE02461046E7
:1047D00070BD0120FEF786FABDE87040FEF764BAAE
:1047E0000000E0FF00BF054A128802F04002002AE4
:1047F000F9D0C2B2014B1B1D1A807047003801402E
:104800002DE9F04F85B0FCF75FFB0446FBF717FF7F
:10481000824630480068FBF709FF04465146FBF723
:104820000AFD04902C480068FBF70EFF06462B4A51
:104830002B4BFBF71AFE804689460498FBF787FF4F
:1048400021F00041044642464B46FBF7ABFF19D22C
:1048500000210498FBF7E4FF02D22248224901E03C
:10486000204822498046894621480068FBF76FFFAF
:10487000064642464B46FBF751FD0446FBF7AAFFAE
:104880001B4908605046FBF7FDFE124908601248BC
:104890000068FBF7CBFE014601905046FBF700FD98
:1048A0008346FBF754FF0F4A104BCDE90201FBF79B
:1048B000DCFD04460D460E480068FBF748FF06463F
:1048C00022462B46FBF72AFD8046FBF783FF05B007
:1048D000BDE8F08F1C0100200C0100209A999999E5
:1048E0009999E93FEA2E4454FB2119C0FB21194054
:1048F000140100202DE9F04F85B0FCF7E9FA0446D9
:10490000FBF79DFE824630480068FBF78FFE0446A9
:104910005146FBF790FC04902C480068FBF794FE8E
:1049200006462B4A2B4BFBF7A0FD80468946049890
:10493000FBF70DFF21F00041044642464B46FBF7D2
:1049400031FF19D200210498FBF76AFF02D22248F6
:10495000224901E0204822498046894621480068D2
:10496000FBF7F5FE064642464B46FBF7D7FC0446EE
:10497000FBF730FF1B4908605046FBF783FE1249E6
:10498000086012480068FBF751FE0146019050464E
:10499000FBF786FC8346FBF7DAFE0F4A104BCDE9A6
:1049A0000201FBF762FD04460D460E480068FBF766
:1049B000CEFE064622462B46FBF7B0FC8046FBF7B0
:1049C00009FF05B0BDE8F08F1801002008010020A4
:1049D0009A9999999999E93FEA2E4454FB2119C073
:1049E000FB211940100100202DE9FC5F4FF0E02071
:1049F00084692A480068844215D228490968081B3E
:104A0000FBF71DFE26490090FBF74AFC0190FBF7DF
:104A10009EFE8246234A244BFBF727FD0746FBF701
:104A2000D9FE054617E06FF07F41091B1B4A12684B
:104A30008818FBF704FE1A490090FBF731FC01903F
:104A4000FBF785FE0746174A174BFBF70EFD82461C
:104A5000FBF7C0FE054600212846FBF7D7FE08D02D
:104A60002846FBF774FE07460022104BFBF79AFE20
:104A700000D20F4DFFF7C4FE06460E4801683046CF
:104A8000FBF7D6FB07462946FBF70AFC8146094897
:104A90000660024804604846BDE8FC9F24010020EF
:104AA000000010418DEDB5A0F7C6B03E0000E03F1C
:104AB0006F12833A2C0100202DE9FC5F4FF0E020BB
:104AC00084692A480068844215D228490968081B6D
:104AD000FBF7B5FD26490090FBF7E2FB0190FBF7E1
:104AE00036FE8246234A244BFBF7BFFC0746FBF702
:104AF00071FE054617E06FF07F41091B1B4A1268E3
:104B00008818FBF79CFD1A490090FBF7C9FB019040
:104B1000FBF71DFE0746174A174BFBF7A6FC82461C
:104B2000FBF758FE054600212846FBF76FFE08D02C
:104B30002846FBF70CFE07460022104BFBF732FE1F
:104B400000D20F4DFFF7D6FE06460E4801683046EC
:104B5000FBF76EFB07462946FBF7A2FB8146094897
:104B60000660024804604846BDE8FC9F2001002022
:104B7000000010418DEDB5A0F7C6B03E0000E03F4B
:104B80006F12833A2801002010B5154800780428D8
:104B900003D013480078032800D110BD00F030FF87
:104BA00010490860FFF78CFD0F4908600F48007836
:104BB00020B1012803D0022803D101E005E004E080
:104BC00003E00BA0FDF7F2FF00BF00BF114A116820
:104BD0005068054A126800F0E7FA00BFDDE7000000
:104BE0006D00002020000020280000206C00002024
:104BF0004D4F54323A206E6F20746F72717565207C
:104C0000636F6E74726F6C2073656C65637465643A
:104C1000210000005400002010B515480078042839
:104C200003D013480078032800D110BD00F000FF26
:104C300010490860FFF768FD0F4908600F480078C9
:104C400020B1012803D0022803D101E005E004E0EF
:104C500003E00BA0FDF7AAFF00BF00BF114A1168D7
:104C60005068054A126800F0B5FC00BFDDE700009F
:104C70006D0000201C000020240000206C0000209B
:104C80004D4F54313A206E6F20746F7271756520EC
:104C9000636F6E74726F6C2073656C6563746564AA
:104CA000210000004C00002008B5FBF7C7FF4FF4BF
:104CB000E13000F059FF4FF4E13000F001FFFDF763
:104CC00015FAFDF773FAFDF7DDFA4FF47A70FFF786
:104CD000C7FCFCF7D5FBFCF7BBFB54485449086004
:104CE0005449086054485549086050485449086080
:104CF000002054490870012053490870002053498E
:104D0000086053490860FCF711FCFCF7D3FBFCF783
:104D10008BFCFCF747FCFCF755FEFCF711FE4DA0A1
:104D2000FDF744FF4F4B504A5049514800F0ACF951
:104D300000234FF0824211464D4800F0C7F9002190
:104D40004B4800F0C1F90121494800F09BF9454B5F
:104D5000464A4849484800F097F900234FF08242FC
:104D60001146454800F0B2F90021434800F0ACF983
:104D70000121414800F086F900F096FE3FA000684E
:104D8000009051E03E480068C82841D300203C49CB
:104D900008603C48006880F400403A4908604FF0E1
:104DA0008E4139480068FBF77BFA06463749FBF726
:104DB00045FA05463649FBF7E9F90446FBF762FC7C
:104DC000C0B28DF802004FF08E4132480068FBF708
:104DD00067FA06462D49FBF731FA05462C49FBF7E1
:104DE000D5F90446FBF74EFCC0B28DF80300002055
:104DF0000CE01DF80010284A118000BF2649091F49
:104E0000098801F040010029F8D0401C0428F0DB9B
:104E10002248006800F0BEF82148006800F042F81F
:104E2000FFF7FAFEFFF7B0FEACE7000000004041DC
:104E3000880000208C0000200000A041A400002079
:104E4000900000206C0000206D0000203001002048
:104E5000340100204D6F746F722072656164792E89
:104E60000D0A000017B7513952499D396F12833925
:104E70005403002052491D3984030020EE0102032F
:104E8000480100200C140140380100200000344388
:104E90000000B4423C0100200438014040010020E1
:104EA0004401002070B5044600F0DAFD3149086085
:104EB0003148007805285AD2DFE800F0032E0C456F
:104EC0004F002E48007810B92D48446001E02D486D
:104ED00004604CE02C4804602C4801682A480068B3
:104EE000FBF7A6F90546FCF71BFC29490860214899
:104EF000016827480068FBF79BF90546FCF7A6FD0B
:104F0000204908601D48007828B9084600681C49F7
:104F10004860002008602AE01D48046015480168C8
:104F20001B480068FBF784F90546FCF78FFD15491F
:104F300008601248007828B908460068104948609F
:104F40000020086013E012480460006800F05CFE76
:104F50000B4948600020086009E00B4804600068C5
:104F6000FFF736F8064948600020086000BF00BF20
:104F700070BD0000300000206D0000206C0000209B
:104F800054000020380000204800002020000020AD
:104F90004000002070B5044600F074FD31490860FF
:104FA0003148007805285AD2DFE800F0032E0C457E
:104FB0004F002E48007810B92D48446001E02D487C
:104FC00004604CE02C4804602C4801682A480068C2
:104FD000FBF72EF90546FCF72BFC29490860214810
:104FE000016827480068FBF723F90546FCF72CFE0B
:104FF000204908601D48007828B9084600681C4907
:105000004860002008602AE01D48046015480168D7
:105010001B480068FBF70CF90546FCF715FE15491F
:1050200008601248007828B90846006810494860AE
:105030000020086013E012480460006800F060FE81
:105040000B4948600020086009E00B4804600068D4
:10505000FFF77AF8064948600020086000BF00BFEB
:1050600070BD00002C0000206D0000206C000020AE
:105070004C00002034000020440000201C000020D0
:105080003C000020C16270472DE9F04104460D4606
:1050900016461F4630212046FBF76DF800212846B2
:1050A000FBF7B4FB03D025606660A76005E04FF016
:1050B0007E50206000206060A0600248A062BDE8D1
:1050C000F08100000AD7A33CC1607047016283628F
:1050D000426270472DE9F84F04460F46E06A10B966
:1050E0000020BDE8F88F2761D4E90310FBF7A0F892
:1050F000054625F000484046A16AFBF787FB00D231
:1051000000252946E069FBF741F8E0610021206AAB
:10511000FBF77CFB13D0D4E90701FBF781FB02D23C
:10512000206AE0610BE0206A80F000494846E169AE
:10513000FBF776FB03D2206A80F00040E06128464E
:105140006169FBF775F88346A168FBF777F881463C
:10515000E1696068FBF772F8834629462068FBF72F
:105160006DF859460090FBF711F882464946FBF767
:105170000DF8064665610021606AFBF747FB11D018
:105180003046616AFBF74CFB01D2666A0AE0606A4E
:1051900080F0004931464846FBF742FB02D2606A84
:1051A00080F0004630469CE72DE9F74F96B08246E6
:1051B0008B4600215846FBF729FB38D05146504614
:1051C000FBF73CF8594611905846FBF737F810901A
:1051D0001199FAF7DBFF1290FEF766FB1390EE4889
:1051E00001681398FBF75CF880465846FBF7AFFA66
:1051F000CDE90A015046FBF7AAFACDE90801DDE93D
:105200000A23FFF76DF9CDE90E011898FBF79FFA15
:10521000CDE90C01DDE90E23FBF780F8CDE91001A3
:10522000FBF7D8FA1390FDF731FE189016E0DA4834
:1052300001685046FBF734F880461898FBF787FA68
:10524000D64AD74BCDE90E01FBF768F8CDE910013E
:10525000FBF7C0FA1390FDF719FE18904046FBF7D4
:1052600076FAD04AD04BCDE91201FBF79BFA01D276
:10527000DFF838834046FBF76AFACA4ACC4BCDE9DF
:105280001201FBF777FA01D2DFF828831898FBF7B1
:105290005EFAC94AC94BCDE90E01FBF758F9002265
:1052A000C74BCDE91001FBF739F8CDE91201FBF747
:1052B00035FA07464046FBF74AFACDE9100118983F
:1052C000FBF745FACDE906013846FBF7CEF9BA4AB5
:1052D000BA4BCDE90201FBF7C8F8CDE90401DDE9DD
:1052E0000623FBF7BCF8CDE90801FBF773FA0A9037
:1052F000FEF78EF90B90FBF72AFAB24AB24BCDE9D2
:105300000C01FBF7B2F8CDE90E01DDE91023FBF744
:10531000ACF8CDE91201FBF75DFA81464046FBF798
:1053200016FACDE910013846FBF79FF90022A44B8D
:10533000CDE90001FBF793F89F4AA04BCDE90201AC
:10534000FBF793F8CDE906011898FBF700FACDE9D1
:105350000401DDE90623FBF782F8CDE90801FBF73C
:1053600039FA0A90FEF754F90B90FBF7F0F9954AD9
:10537000954BCDE90C01FBF778F8CDE90E01DDE99D
:105380001023FBF772F8CDE91201FBF723FA149012
:1053900049464FF07E50FAF74BFF13901499FAF7F5
:1053A00047FF1590072F7DD2DFE807F0C60424449D
:1053B0006486A6004FF080411598FAF771FF1390AC
:1053C00048461499FAF7E2FE12901399FAF7DEFEB6
:1053D00004464FF080411598FAF762FF1390149934
:1053E000FAF7D4FE05464FF080411598FAF758FFBA
:1053F0000646A5E04FF080411598FAF751FF49465F
:105400001390FAF7C3FE04464FF080411598FAF75F
:1054100047FF139048461499FAF7B8FE1290139973
:10542000FAF7B4FE05464FF080411598FAF738FFB9
:10543000064685E04FF080411598FAF731FF0446A3
:105440004FF080411598FAF72BFF139048461499B6
:10545000FAF79CFE12901399FAF798FE05464FF062
:1054600080411598FAF71CFF13901499FAF78EFEF5
:10547000064665E04FF080411598FAF711FF0446A3
:105480004FF080411598FAF70BFF49461390FAF751
:105490007DFE05464FF080411598FAF701FF139005
:1054A000484600E048E01499FAF770FE129013990C
:1054B000FAF76CFE064643E04FF080411598FAF784
:1054C000EFFE13901499FAF761FE04464FF0804105
:1054D0001598FAF7E5FE05464FF080411598FAF762
:1054E000DFFE139048461499FAF750FE1290139974
:1054F000FAF74CFE064623E04FF080411598FAF784
:10550000CFFE139048461499FAF740FE1290139973
:10551000FAF73CFE04464FF080411598FAF7C0FEBA
:1055200005464FF080411598FAF7BAFE49461390A8
:10553000FAF72CFE064603E000240025002600BFF3
:1055400000BF22492046FAF779FE1290FBF7B3F824
:1055500080B2014613901E48FDF713F91B492846F7
:10556000FAF76CFE1290FBF7A6F880B20146139092
:105570001748FDF708F915493046FAF75FFE129013
:10558000FBF799F880B2014613901148FDF7FDF83A
:1055900019B0BDE8F08F000088000020F4D6435415
:1055A000FB21F93F105839B4C876E23F46B6133FA5
:1055B000C876E2BF46B613BF40AF2D3852C1F03FA8
:1055C0000000F03F6B6058E87AB6FB3F0000B4443F
:1055D000000400402DE9F74F96B082468B4600212B
:1055E0005846FBF713F938D051465046FAF726FED5
:1055F000594611905846FAF721FE10901199FAF782
:10560000C5FD1290FEF750F91390EF48016813980A
:10561000FAF746FE80465846FBF799F8CDE90A01AD
:105620005046FBF794F8CDE90801DDE90A23FEF7BF
:1056300057FFCDE90E011898FBF789F8CDE90C0169
:10564000DDE90E23FAF76AFECDE91001FBF7C2F897
:105650001390FDF71BFC189016E0DB4801685046DC
:10566000FAF71EFE80461898FBF771F8D74AD84B18
:10567000CDE90E01FAF752FECDE91001FBF7AAF8C9
:105680001390FDF703FC18904046FBF760F8D14AF1
:10569000D14BCDE91201FBF785F801D2DFF83C834D
:1056A0004046FBF754F8CB4ACD4BCDE91201FBF74E
:1056B00061F801D2DFF82C831898FBF748F8CA4A42
:1056C000CA4BCDE90E01FAF742FF0022C84BCDE9E3
:1056D0001001FAF723FECDE91201FBF71FF8074688
:1056E0004046FBF734F8CDE910011898FBF72FF886
:1056F000CDE906013846FAF7B8FFBB4ABB4BCDE906
:105700000201FAF7B2FECDE90401DDE90623FAF75A
:10571000A6FECDE90801FBF75DF80A90FDF778FFDA
:105720000B90FBF714F8B34AB34BCDE90C01FAF731
:105730009CFECDE90E01DDE91023FAF796FECDE9D6
:105740001201FBF747F881464046FBF700F8CDE928
:1057500010013846FAF789FF0022A54BCDE9000178
:10576000FAF77DFEA04AA14BCDE90201FAF77DFED2
:10577000CDE906011898FAF7EAFFCDE90401DDE961
:105780000623FAF76CFECDE90801FBF723F80A902F
:10579000FDF73EFF0B90FAF7DAFF964A964BCDE9FC
:1057A0000C01FAF762FECDE90E01DDE91023FAF7EC
:1057B0005CFECDE91201FBF70DF8149049464FF05D
:1057C0007E50FAF735FD13901499FAF731FD1590D4
:1057D000072F7DD2DFE807F0C60424446486A600C4
:1057E0004FF080411598FAF75BFD139048461499E5
:1057F000FAF7CCFC12901399FAF7C8FC04464FF064
:1058000080411598FAF74CFD13901499FAF7BEFCF5
:1058100005464FF080411598FAF742FD0646A5E08F
:105820004FF080411598FAF73BFD49461390FAF77F
:10583000ADFC04464FF080411598FAF731FD139006
:1058400048461499FAF7A2FC12901399FAF79EFCB5
:1058500005464FF080411598FAF722FD064685E08F
:105860004FF080411598FAF71BFD04464FF0804138
:105870001598FAF715FD139048461499FAF786FC27
:1058800012901399FAF782FC05464FF08041159863
:10589000FAF706FD13901499FAF778FC064665E0CE
:1058A0004FF080411598FAF7FBFC04464FF0804119
:1058B0001598FAF7F5FC49461390FAF767FC054688
:1058C0004FF080411598FAF7EBFC1390484600E042
:1058D00048E01499FAF75AFC12901399FAF756FC1B
:1058E000064643E04FF080411598FAF7D9FC139033
:1058F0001499FAF74BFC04464FF080411598FAF7DB
:10590000CFFC05464FF080411598FAF7C9FC13907B
:1059100048461499FAF73AFC12901399FAF736FCB4
:10592000064623E04FF080411598FAF7B9FC139032
:1059300048461499FAF72AFC12901399FAF726FCB4
:1059400004464FF080411598FAF7AAFC05464FF03F
:1059500080411598FAF7A4FC49461390FAF716FC13
:10596000064603E000240025002600BF00BF2349AF
:105970002046FAF763FC1290FAF79DFE80B20146CA
:1059800013904FF08040FCF7FCFE1C492846FAF7C4
:1059900055FC1290FAF78FFE80B2014613904FF03B
:1059A0008040FCF7F0FE15493046FAF747FC1290AC
:1059B000FAF781FE80B2014613904FF08040FCF769
:1059C000E4FE19B0BDE8F08F88000020F4D64354FF
:1059D000FB21F93F105839B4C876E23F46B6133F71
:1059E000C876E2BF46B613BF40AF2D3852C1F03F74
:1059F0000000F03F6B6058E87AB6FB3F0000B4440B
:105A000070B5FEF7FDFE054607480068FAF70EFE82
:105A100006462946FAF712FC044604480168204667
:105A2000FAF706FC70BD000084000020740000201E
:105A300070B5FEF75FFF054607480068FAF7F6FD08
:105A400006462946FAF7FAFB044604480168204650
:105A5000FAF7EEFB70BD000080000020700000200F
:105A600070B5FEF7C1FF0646FBF792FC04460448FA
:105A70000068FAF7DBFD05462146FAF7DFFB70BD4B
:105A80008400002070B5FFF717F80646FBF7B0FC5E
:105A9000044604480068FAF7C9FD05462146FAF7AE
:105AA000CDFB70BD8000002004484FF0E02148612C
:105AB000002088610120086170470000FEFFFF00A0
:105AC00010B586B0044601211920FCF7DDF901214B
:105AD000C804FCF7B9F94FF48060ADF81400032056
:105AE0008DF8160018208DF8170005A91C48FBF743
:105AF00011F94FF40060ADF8140004208DF8170080
:105B000005A91748FBF706F934208DF8000003209B
:105B10008DF801008DF8020001208DF80300684621
:105B2000FBF7C6FD01940020ADF80800ADF80A00AF
:105B3000ADF80C00ADF810000C20ADF80E0001A976
:105B40000848FCF7BFFF012240F225510548FCF749
:105B500093FF01210348FCF759FF06B010BD000078
:105B600000100140004C004010B586B004460121F1
:105B700044F20400FCF788F94FF40070ADF814000B
:105B800003208DF8160018208DF8170005A91C4871
:105B9000FBF7C0F84FF48060ADF8140004208DF8D6
:105BA000170005A91648FBF7B5F825208DF8000069
:105BB00003208DF801008DF8020001208DF803000C
:105BC0006846FBF775FD01940020ADF80800ADF8BC
:105BD0000A00ADF80C00ADF810000C20ADF80E0076
:105BE00001A90848FCF76EFF012240F22551054843
:105BF000FCF742FF01210348FCF708FF06B010BD87
:105C000000080140003801402DE9F14F82B04FF00B
:105C1000E020846931480068844215D22F49096820
:105C2000081BFAF70CFD2E490190FAF739FB834661
:105C3000FAF78DFD81462B4A2B4BFAF716FC0646E8
:105C4000FAF7C8FD054617E06FF07F41091B234AAC
:105C500012688818FAF7F3FC21490190FAF720FB43
:105C60008346FAF774FD06461E4A1F4BFAF7FDFB02
:105C70008146FAF7AFFD0546184804600021284622
:105C8000FAF7C4FD08D02846FAF761FD064600225F
:105C9000164BFAF787FD00D2154D29460298FAF700
:105CA000CDFA0746134801683846FAF76FFA0646F8
:105CB000FDF7ECF80F4908600F48D0F800800F4856
:105CC00001680C480068FDF713F8064632460021CB
:105CD0004046FFF769FA4046BDE8FE8FA00000206D
:105CE000000010418DEDB5A0F7C6B03E0000E03FCA
:105CF0006F12833A200000208C00002098000020C2
:105D00002DE9F14F82B04FF0E020846931480068FE
:105D1000844215D22F490968081BFAF790FC2E49D6
:105D20000190FAF7BDFA8346FAF711FD81462B4A36
:105D30002B4BFAF79AFB0646FAF74CFD054617E09F
:105D40006FF07F41091B234A12688818FAF777FC25
:105D500021490190FAF7A4FA8346FAF7F8FC0646BF
:105D60001E4A1F4BFAF781FB8146FAF733FD0546C1
:105D70001848046000212846FAF748FD08D0284654
:105D8000FAF7E5FC06460022164BFAF70BFD00D2A7
:105D9000154D29460298FAF751FA0746134801684B
:105DA0003846FAF7F3F90646FDF770F80F49086030
:105DB0000F48D0F800800F4801680C480068FCF7D5
:105DC00097FF0646324600214046FFF703FC404657
:105DD000BDE8FE8F9C000020000010418DEDB5A0B5
:105DE000F7C6B03E0000E03F6F12833A1C0000206F
:105DF0008C00002094000020000000004F000000F4
:105E00009E000000ED0000003C0100008B0100003E
:105E1000D90100002802000077020000C60200003D
:105E20001503000063030000B2030000000400003B
:105E30004F0400009D040000EC0400003A0500003F
:105E400088050000D6050000240600007206000048
:105E5000C00600000E0700005B070000A907000055
:105E6000F60700004308000090080000DD0800006D
:105E70002A09000077090000C30900000F0A00008A
:105E80005C0A0000A80A0000F40A00003F0B0000B2
:105E90008B0B0000D60B0000210C00006C0C0000E6
:105EA000B70C0000010D00004C0D0000960D000025
:105EB000E00D0000290E0000730E0000BC0E000073
:105EC000050F00004E0F0000960F0000DF0F0000CE
:105ED000271000006E100000B6100000FD1000003A
:105EE000441100008B110000D111000017120000B6
:105EF0005D120000A2120000E81200002D13000045
:105F000071130000B6130000F91300003D140000E7
:105F100081140000C414000006150000491500009B
:105F20008B150000CC1500000E1600004F16000067
:105F30008F160000CF1600000F1700004F1700004B
:105F40008E170000CD1700000B1800004918000044
:105F500087180000C4180000011900003D19000056
:105F600079190000B5190000F01900002B1A000083
:105F7000661A00009F1A0000D91A0000121B0000C8
:105F80004B1B0000831B0000BB1B0000F21B00002A
:105F9000291C0000601C0000961C0000CB1C0000A7
:105FA000001D0000351D0000691D00009D1D000042
:105FB000D01D0000031E0000351E0000671E0000FB
:105FC000981E0000C91E0000FA1E0000291F0000D4
:105FD000591F0000881F0000B61F0000E41F0000CA
:105FE000112000003E2000006A20000096200000E2
:105FF000C1200000EC20000016210000402100001C
:106000006921000092210000BA210000E121000076
:10601000082200002F220000552200007A220000F2
:106020009F220000C3220000E72200000A23000094
:106030002D2300004F230000702300009123000057
:10604000B2230000D1230000F12300000F24000040
:106050002D2400004B24000068240000842400004C
:10606000A0240000BB240000D5240000EF24000081
:1060700009250000222500003A25000052250000D5
:10608000692500007F25000095250000AA25000055
:10609000BF250000D3250000E6250000F9250000FB
:1060A0000B2600001D2600002E2600003E260000C4
:1060B0004E2600005D2600006C2600007A260000B7
:1060C0008726000094260000A0260000AB260000D2
:1060D000B6260000C0260000CA260000D326000015
:1060E000DB260000E3260000EA260000F12600007F
:1060F000F7260000FC26000001270000052700000D
:10610000082700000B2700000D2700000F270000C4
:1061100010270000102700004FBB610567ACDD3F72
:10612000182D4454FB21E93F9BF681D20B73EF3FBE
:10613000182D4454FB21F93FE2652F227F2B7A3C36
:10614000075C143326A6813CBDCBF07A8807703CEF
:10615000075C143326A6913CC4EB98999999C9BF62
:10616000711623FEC671BCBF6D9A74AFF2B0B3BF97
:106170009AFDDE522DDEADBF2F6C6A2C44B4A2BF57
:106180000D5555555555D53FFF8300922449C23FC3
:106190006E204CC5CD45B73F513DD0A0660DB13FF7
:1061A000EB0D76244B7BA93F11DA22E33AAD903F09
:1061B0000000000000000000D8610008000000207E
:1061C00054010000560B0008EC6100085401002047
:1061D00064060000D42C0008412D010203040400D1
:0C61E00009FF0607080902040608014137
:0400000508000131BD
:00000001FF
